{
  "contractName": "hei",
  "abi": [
    {
      "inputs": [],
      "stateMutability": "nonpayable",
      "type": "constructor"
    },
    {
      "anonymous": false,
      "inputs": [
        {
          "indexed": true,
          "internalType": "address",
          "name": "owner",
          "type": "address"
        },
        {
          "indexed": true,
          "internalType": "address",
          "name": "approved",
          "type": "address"
        },
        {
          "indexed": true,
          "internalType": "uint256",
          "name": "tokenId",
          "type": "uint256"
        }
      ],
      "name": "Approval",
      "type": "event"
    },
    {
      "anonymous": false,
      "inputs": [
        {
          "indexed": true,
          "internalType": "address",
          "name": "owner",
          "type": "address"
        },
        {
          "indexed": true,
          "internalType": "address",
          "name": "operator",
          "type": "address"
        },
        {
          "indexed": false,
          "internalType": "bool",
          "name": "approved",
          "type": "bool"
        }
      ],
      "name": "ApprovalForAll",
      "type": "event"
    },
    {
      "anonymous": false,
      "inputs": [
        {
          "indexed": true,
          "internalType": "bytes32",
          "name": "role",
          "type": "bytes32"
        },
        {
          "indexed": true,
          "internalType": "bytes32",
          "name": "previousAdminRole",
          "type": "bytes32"
        },
        {
          "indexed": true,
          "internalType": "bytes32",
          "name": "newAdminRole",
          "type": "bytes32"
        }
      ],
      "name": "RoleAdminChanged",
      "type": "event"
    },
    {
      "anonymous": false,
      "inputs": [
        {
          "indexed": true,
          "internalType": "bytes32",
          "name": "role",
          "type": "bytes32"
        },
        {
          "indexed": true,
          "internalType": "address",
          "name": "account",
          "type": "address"
        },
        {
          "indexed": true,
          "internalType": "address",
          "name": "sender",
          "type": "address"
        }
      ],
      "name": "RoleGranted",
      "type": "event"
    },
    {
      "anonymous": false,
      "inputs": [
        {
          "indexed": true,
          "internalType": "bytes32",
          "name": "role",
          "type": "bytes32"
        },
        {
          "indexed": true,
          "internalType": "address",
          "name": "account",
          "type": "address"
        },
        {
          "indexed": true,
          "internalType": "address",
          "name": "sender",
          "type": "address"
        }
      ],
      "name": "RoleRevoked",
      "type": "event"
    },
    {
      "anonymous": false,
      "inputs": [
        {
          "indexed": true,
          "internalType": "address",
          "name": "from",
          "type": "address"
        },
        {
          "indexed": true,
          "internalType": "address",
          "name": "to",
          "type": "address"
        },
        {
          "indexed": true,
          "internalType": "uint256",
          "name": "tokenId",
          "type": "uint256"
        }
      ],
      "name": "Transfer",
      "type": "event"
    },
    {
      "inputs": [],
      "name": "DEFAULT_ADMIN_ROLE",
      "outputs": [
        {
          "internalType": "bytes32",
          "name": "",
          "type": "bytes32"
        }
      ],
      "stateMutability": "view",
      "type": "function",
      "constant": true
    },
    {
      "inputs": [],
      "name": "MINTER_ROLE",
      "outputs": [
        {
          "internalType": "bytes32",
          "name": "",
          "type": "bytes32"
        }
      ],
      "stateMutability": "view",
      "type": "function",
      "constant": true
    },
    {
      "inputs": [
        {
          "internalType": "address",
          "name": "to",
          "type": "address"
        },
        {
          "internalType": "uint256",
          "name": "tokenId",
          "type": "uint256"
        }
      ],
      "name": "approve",
      "outputs": [],
      "stateMutability": "nonpayable",
      "type": "function"
    },
    {
      "inputs": [
        {
          "internalType": "address",
          "name": "owner",
          "type": "address"
        }
      ],
      "name": "balanceOf",
      "outputs": [
        {
          "internalType": "uint256",
          "name": "",
          "type": "uint256"
        }
      ],
      "stateMutability": "view",
      "type": "function",
      "constant": true
    },
    {
      "inputs": [
        {
          "internalType": "uint256",
          "name": "tokenId",
          "type": "uint256"
        }
      ],
      "name": "getApproved",
      "outputs": [
        {
          "internalType": "address",
          "name": "",
          "type": "address"
        }
      ],
      "stateMutability": "view",
      "type": "function",
      "constant": true
    },
    {
      "inputs": [
        {
          "internalType": "bytes32",
          "name": "role",
          "type": "bytes32"
        }
      ],
      "name": "getRoleAdmin",
      "outputs": [
        {
          "internalType": "bytes32",
          "name": "",
          "type": "bytes32"
        }
      ],
      "stateMutability": "view",
      "type": "function",
      "constant": true
    },
    {
      "inputs": [
        {
          "internalType": "bytes32",
          "name": "role",
          "type": "bytes32"
        },
        {
          "internalType": "address",
          "name": "account",
          "type": "address"
        }
      ],
      "name": "grantRole",
      "outputs": [],
      "stateMutability": "nonpayable",
      "type": "function"
    },
    {
      "inputs": [
        {
          "internalType": "bytes32",
          "name": "role",
          "type": "bytes32"
        },
        {
          "internalType": "address",
          "name": "account",
          "type": "address"
        }
      ],
      "name": "hasRole",
      "outputs": [
        {
          "internalType": "bool",
          "name": "",
          "type": "bool"
        }
      ],
      "stateMutability": "view",
      "type": "function",
      "constant": true
    },
    {
      "inputs": [
        {
          "internalType": "address",
          "name": "owner",
          "type": "address"
        },
        {
          "internalType": "address",
          "name": "operator",
          "type": "address"
        }
      ],
      "name": "isApprovedForAll",
      "outputs": [
        {
          "internalType": "bool",
          "name": "",
          "type": "bool"
        }
      ],
      "stateMutability": "view",
      "type": "function",
      "constant": true
    },
    {
      "inputs": [],
      "name": "name",
      "outputs": [
        {
          "internalType": "string",
          "name": "",
          "type": "string"
        }
      ],
      "stateMutability": "view",
      "type": "function",
      "constant": true
    },
    {
      "inputs": [
        {
          "internalType": "uint256",
          "name": "tokenId",
          "type": "uint256"
        }
      ],
      "name": "ownerOf",
      "outputs": [
        {
          "internalType": "address",
          "name": "",
          "type": "address"
        }
      ],
      "stateMutability": "view",
      "type": "function",
      "constant": true
    },
    {
      "inputs": [
        {
          "internalType": "bytes32",
          "name": "role",
          "type": "bytes32"
        },
        {
          "internalType": "address",
          "name": "account",
          "type": "address"
        }
      ],
      "name": "renounceRole",
      "outputs": [],
      "stateMutability": "nonpayable",
      "type": "function"
    },
    {
      "inputs": [
        {
          "internalType": "bytes32",
          "name": "role",
          "type": "bytes32"
        },
        {
          "internalType": "address",
          "name": "account",
          "type": "address"
        }
      ],
      "name": "revokeRole",
      "outputs": [],
      "stateMutability": "nonpayable",
      "type": "function"
    },
    {
      "inputs": [
        {
          "internalType": "address",
          "name": "from",
          "type": "address"
        },
        {
          "internalType": "address",
          "name": "to",
          "type": "address"
        },
        {
          "internalType": "uint256",
          "name": "tokenId",
          "type": "uint256"
        }
      ],
      "name": "safeTransferFrom",
      "outputs": [],
      "stateMutability": "nonpayable",
      "type": "function"
    },
    {
      "inputs": [
        {
          "internalType": "address",
          "name": "from",
          "type": "address"
        },
        {
          "internalType": "address",
          "name": "to",
          "type": "address"
        },
        {
          "internalType": "uint256",
          "name": "tokenId",
          "type": "uint256"
        },
        {
          "internalType": "bytes",
          "name": "_data",
          "type": "bytes"
        }
      ],
      "name": "safeTransferFrom",
      "outputs": [],
      "stateMutability": "nonpayable",
      "type": "function"
    },
    {
      "inputs": [
        {
          "internalType": "address",
          "name": "operator",
          "type": "address"
        },
        {
          "internalType": "bool",
          "name": "approved",
          "type": "bool"
        }
      ],
      "name": "setApprovalForAll",
      "outputs": [],
      "stateMutability": "nonpayable",
      "type": "function"
    },
    {
      "inputs": [],
      "name": "symbol",
      "outputs": [
        {
          "internalType": "string",
          "name": "",
          "type": "string"
        }
      ],
      "stateMutability": "view",
      "type": "function",
      "constant": true
    },
    {
      "inputs": [
        {
          "internalType": "uint256",
          "name": "index",
          "type": "uint256"
        }
      ],
      "name": "tokenByIndex",
      "outputs": [
        {
          "internalType": "uint256",
          "name": "",
          "type": "uint256"
        }
      ],
      "stateMutability": "view",
      "type": "function",
      "constant": true
    },
    {
      "inputs": [
        {
          "internalType": "address",
          "name": "owner",
          "type": "address"
        },
        {
          "internalType": "uint256",
          "name": "index",
          "type": "uint256"
        }
      ],
      "name": "tokenOfOwnerByIndex",
      "outputs": [
        {
          "internalType": "uint256",
          "name": "",
          "type": "uint256"
        }
      ],
      "stateMutability": "view",
      "type": "function",
      "constant": true
    },
    {
      "inputs": [],
      "name": "totalSupply",
      "outputs": [
        {
          "internalType": "uint256",
          "name": "",
          "type": "uint256"
        }
      ],
      "stateMutability": "view",
      "type": "function",
      "constant": true
    },
    {
      "inputs": [
        {
          "internalType": "address",
          "name": "from",
          "type": "address"
        },
        {
          "internalType": "address",
          "name": "to",
          "type": "address"
        },
        {
          "internalType": "uint256",
          "name": "tokenId",
          "type": "uint256"
        }
      ],
      "name": "transferFrom",
      "outputs": [],
      "stateMutability": "nonpayable",
      "type": "function"
    },
    {
      "inputs": [
        {
          "internalType": "address",
          "name": "to",
          "type": "address"
        }
      ],
      "name": "safeMint",
      "outputs": [],
      "stateMutability": "nonpayable",
      "type": "function"
    },
    {
      "inputs": [
        {
          "internalType": "uint256",
          "name": "tokenId",
          "type": "uint256"
        }
      ],
      "name": "tokenURI",
      "outputs": [
        {
          "internalType": "string",
          "name": "",
          "type": "string"
        }
      ],
      "stateMutability": "view",
      "type": "function",
      "constant": true
    },
    {
      "inputs": [
        {
          "internalType": "bytes4",
          "name": "interfaceId",
          "type": "bytes4"
        }
      ],
      "name": "supportsInterface",
      "outputs": [
        {
          "internalType": "bool",
          "name": "",
          "type": "bool"
        }
      ],
      "stateMutability": "view",
      "type": "function",
      "constant": true
    },
    {
      "inputs": [
        {
          "internalType": "address",
          "name": "recipient",
          "type": "address"
        },
        {
          "internalType": "string",
          "name": "hash",
          "type": "string"
        },
        {
          "internalType": "string",
          "name": "metadata",
          "type": "string"
        }
      ],
      "name": "mintItem",
      "outputs": [
        {
          "internalType": "uint256",
          "name": "",
          "type": "uint256"
        }
      ],
      "stateMutability": "nonpayable",
      "type": "function"
    },
    {
      "inputs": [
        {
          "internalType": "uint256",
          "name": "_tokenId",
          "type": "uint256"
        }
      ],
      "name": "buyToken",
      "outputs": [],
      "stateMutability": "payable",
      "type": "function",
      "payable": true
    }
  ],
  "bytecode": "0x60806040523480156200001157600080fd5b506040518060400160405280600881526020017f486569726c6f6f6d0000000000000000000000000000000000000000000000008152506040518060400160405280600381526020017f48454900000000000000000000000000000000000000000000000000000000008152508160009080519060200190620000969291906200027a565b508060019080519060200190620000af9291906200027a565b505050620000c76000801b33620000ff60201b60201c565b620000f97f9f2df0fed2c77648de5860a4cc508cd0818c85b8b8a1ab4ceeef8d981c8956a633620000ff60201b60201c565b6200038f565b6200011182826200011560201b60201c565b5050565b6200012782826200020760201b60201c565b62000203576001600b600084815260200190815260200160002060000160008373ffffffffffffffffffffffffffffffffffffffff1673ffffffffffffffffffffffffffffffffffffffff16815260200190815260200160002060006101000a81548160ff021916908315150217905550620001a86200027260201b60201c565b73ffffffffffffffffffffffffffffffffffffffff168173ffffffffffffffffffffffffffffffffffffffff16837f2f8788117e7eff1d82e926ec794901d17c78024a50270940304540a733656f0d60405160405180910390a45b5050565b6000600b600084815260200190815260200160002060000160008373ffffffffffffffffffffffffffffffffffffffff1673ffffffffffffffffffffffffffffffffffffffff16815260200190815260200160002060009054906101000a900460ff16905092915050565b600033905090565b82805462000288906200032a565b90600052602060002090601f016020900481019282620002ac5760008555620002f8565b82601f10620002c757805160ff1916838001178555620002f8565b82800160010185558215620002f8579182015b82811115620002f7578251825591602001919060010190620002da565b5b5090506200030791906200030b565b5090565b5b80821115620003265760008160009055506001016200030c565b5090565b600060028204905060018216806200034357607f821691505b602082108114156200035a576200035962000360565b5b50919050565b7f4e487b7100000000000000000000000000000000000000000000000000000000600052602260045260246000fd5b61423c806200039f6000396000f3fe6080604052600436106101815760003560e01c80634f6ccce7116100d1578063a217fddf1161008a578063c87b56dd11610064578063c87b56dd146105bb578063d5391393146105f8578063d547741f14610623578063e985e9c51461064c57610181565b8063a217fddf1461053e578063a22cb46514610569578063b88d4fde1461059257610181565b80634f6ccce7146103e25780636352211e1461041f57806370a082311461045c57806391d148541461049957806395d89b41146104d65780639ada37971461050157610181565b8063248a9ca31161013e5780632f745c59116101185780632f745c591461032a57806336568abe1461036757806340d097c31461039057806342842e0e146103b957610181565b8063248a9ca3146102a85780632d296bf1146102e55780632f2ff15d1461030157610181565b806301ffc9a71461018657806306fdde03146101c3578063081812fc146101ee578063095ea7b31461022b57806318160ddd1461025457806323b872dd1461027f575b600080fd5b34801561019257600080fd5b506101ad60048036038101906101a8919061303e565b610689565b6040516101ba9190613a54565b60405180910390f35b3480156101cf57600080fd5b506101d861069b565b6040516101e59190613a8a565b60405180910390f35b3480156101fa57600080fd5b5061021560048036038101906102109190613090565b61072d565b60405161022291906139ed565b60405180910390f35b34801561023757600080fd5b50610252600480360381019061024d9190612f9d565b6107b2565b005b34801561026057600080fd5b506102696108ca565b6040516102769190613d2c565b60405180910390f35b34801561028b57600080fd5b506102a660048036038101906102a19190612e18565b6108d7565b005b3480156102b457600080fd5b506102cf60048036038101906102ca9190612fd9565b610937565b6040516102dc9190613a6f565b60405180910390f35b6102ff60048036038101906102fa9190613090565b610957565b005b34801561030d57600080fd5b5061032860048036038101906103239190613002565b610a32565b005b34801561033657600080fd5b50610351600480360381019061034c9190612f9d565b610a5b565b60405161035e9190613d2c565b60405180910390f35b34801561037357600080fd5b5061038e60048036038101906103899190613002565b610b00565b005b34801561039c57600080fd5b506103b760048036038101906103b29190612db3565b610b83565b005b3480156103c557600080fd5b506103e060048036038101906103db9190612e18565b610bd6565b005b3480156103ee57600080fd5b5061040960048036038101906104049190613090565b610bf6565b6040516104169190613d2c565b60405180910390f35b34801561042b57600080fd5b5061044660048036038101906104419190613090565b610c8d565b60405161045391906139ed565b60405180910390f35b34801561046857600080fd5b50610483600480360381019061047e9190612db3565b610d3f565b6040516104909190613d2c565b60405180910390f35b3480156104a557600080fd5b506104c060048036038101906104bb9190613002565b610df7565b6040516104cd9190613a54565b60405180910390f35b3480156104e257600080fd5b506104eb610e62565b6040516104f89190613a8a565b60405180910390f35b34801561050d57600080fd5b5061052860048036038101906105239190612f1e565b610ef4565b6040516105359190613d2c565b60405180910390f35b34801561054a57600080fd5b50610553610fa1565b6040516105609190613a6f565b60405180910390f35b34801561057557600080fd5b50610590600480360381019061058b9190612ee2565b610fa8565b005b34801561059e57600080fd5b506105b960048036038101906105b49190612e67565b611129565b005b3480156105c757600080fd5b506105e260048036038101906105dd9190613090565b61118b565b6040516105ef9190613a8a565b60405180910390f35b34801561060457600080fd5b5061060d61119d565b60405161061a9190613a6f565b60405180910390f35b34801561062f57600080fd5b5061064a60048036038101906106459190613002565b6111c1565b005b34801561065857600080fd5b50610673600480360381019061066e9190612ddc565b6111ea565b6040516106809190613a54565b60405180910390f35b60006106948261127e565b9050919050565b6060600080546106aa9061401a565b80601f01602080910402602001604051908101604052809291908181526020018280546106d69061401a565b80156107235780601f106106f857610100808354040283529160200191610723565b820191906000526020600020905b81548152906001019060200180831161070657829003601f168201915b5050505050905090565b6000610738826112f8565b610777576040517f08c379a000000000000000000000000000000000000000000000000000000000815260040161076e90613c4c565b60405180910390fd5b6004600083815260200190815260200160002060009054906101000a900473ffffffffffffffffffffffffffffffffffffffff169050919050565b60006107bd82610c8d565b90508073ffffffffffffffffffffffffffffffffffffffff168373ffffffffffffffffffffffffffffffffffffffff16141561082e576040517f08c379a000000000000000000000000000000000000000000000000000000000815260040161082590613cac565b60405180910390fd5b8073ffffffffffffffffffffffffffffffffffffffff1661084d611364565b73ffffffffffffffffffffffffffffffffffffffff16148061087c575061087b81610876611364565b6111ea565b5b6108bb576040517f08c379a00000000000000000000000000000000000000000000000000000000081526004016108b290613b8c565b60405180910390fd5b6108c5838361136c565b505050565b6000600880549050905090565b6108e86108e2611364565b82611425565b610927576040517f08c379a000000000000000000000000000000000000000000000000000000000815260040161091e90613ccc565b60405180910390fd5b610932838383611503565b505050565b6000600b6000838152602001908152602001600020600101549050919050565b600073ffffffffffffffffffffffffffffffffffffffff163373ffffffffffffffffffffffffffffffffffffffff16141561099157600080fd5b61099a816112f8565b6109a357600080fd5b60006109ae82610c8d565b9050600073ffffffffffffffffffffffffffffffffffffffff168173ffffffffffffffffffffffffffffffffffffffff1614156109ea57600080fd5b3373ffffffffffffffffffffffffffffffffffffffff168173ffffffffffffffffffffffffffffffffffffffff161415610a2357600080fd5b610a2e813384611503565b5050565b610a3b82610937565b610a4c81610a47611364565b61175f565b610a5683836117fc565b505050565b6000610a6683610d3f565b8210610aa7576040517f08c379a0000000000000000000000000000000000000000000000000000000008152600401610a9e90613acc565b60405180910390fd5b600660008473ffffffffffffffffffffffffffffffffffffffff1673ffffffffffffffffffffffffffffffffffffffff168152602001908152602001600020600083815260200190815260200160002054905092915050565b610b08611364565b73ffffffffffffffffffffffffffffffffffffffff168173ffffffffffffffffffffffffffffffffffffffff1614610b75576040517f08c379a0000000000000000000000000000000000000000000000000000000008152600401610b6c90613d0c565b60405180910390fd5b610b7f82826118dd565b5050565b610bad7f9f2df0fed2c77648de5860a4cc508cd0818c85b8b8a1ab4ceeef8d981c8956a633610df7565b610bb657600080fd5b610bc981610bc4600d6119bf565b6119cd565b610bd3600d6119eb565b50565b610bf183838360405180602001604052806000815250611129565b505050565b6000610c006108ca565b8210610c41576040517f08c379a0000000000000000000000000000000000000000000000000000000008152600401610c3890613cec565b60405180910390fd5b60088281548110610c7b577f4e487b7100000000000000000000000000000000000000000000000000000000600052603260045260246000fd5b90600052602060002001549050919050565b6000806002600084815260200190815260200160002060009054906101000a900473ffffffffffffffffffffffffffffffffffffffff169050600073ffffffffffffffffffffffffffffffffffffffff168173ffffffffffffffffffffffffffffffffffffffff161415610d36576040517f08c379a0000000000000000000000000000000000000000000000000000000008152600401610d2d90613bcc565b60405180910390fd5b80915050919050565b60008073ffffffffffffffffffffffffffffffffffffffff168273ffffffffffffffffffffffffffffffffffffffff161415610db0576040517f08c379a0000000000000000000000000000000000000000000000000000000008152600401610da790613bac565b60405180910390fd5b600360008373ffffffffffffffffffffffffffffffffffffffff1673ffffffffffffffffffffffffffffffffffffffff168152602001908152602001600020549050919050565b6000600b600084815260200190815260200160002060000160008373ffffffffffffffffffffffffffffffffffffffff1673ffffffffffffffffffffffffffffffffffffffff16815260200190815260200160002060009054906101000a900460ff16905092915050565b606060018054610e719061401a565b80601f0160208091040260200160405190810160405280929190818152602001828054610e9d9061401a565b8015610eea5780601f10610ebf57610100808354040283529160200191610eea565b820191906000526020600020905b815481529060010190602001808311610ecd57829003601f168201915b5050505050905090565b60006001600c84604051610f089190613978565b908152602001604051809103902060009054906101000a900460ff1660ff161415610f3257600080fd5b6001600c84604051610f449190613978565b908152602001604051809103902060006101000a81548160ff021916908360ff160217905550610f74600d6119eb565b6000610f80600d6119bf565b9050610f8c85826119cd565b610f968184611a01565b809150509392505050565b6000801b81565b610fb0611364565b73ffffffffffffffffffffffffffffffffffffffff168273ffffffffffffffffffffffffffffffffffffffff16141561101e576040517f08c379a000000000000000000000000000000000000000000000000000000000815260040161101590613b4c565b60405180910390fd5b806005600061102b611364565b73ffffffffffffffffffffffffffffffffffffffff1673ffffffffffffffffffffffffffffffffffffffff16815260200190815260200160002060008473ffffffffffffffffffffffffffffffffffffffff1673ffffffffffffffffffffffffffffffffffffffff16815260200190815260200160002060006101000a81548160ff0219169083151502179055508173ffffffffffffffffffffffffffffffffffffffff166110d8611364565b73ffffffffffffffffffffffffffffffffffffffff167f17307eab39ab6107e8899845ad3d59bd9653f200f220920489ca2b5937696c318360405161111d9190613a54565b60405180910390a35050565b61113a611134611364565b83611425565b611179576040517f08c379a000000000000000000000000000000000000000000000000000000000815260040161117090613ccc565b60405180910390fd5b61118584848484611a75565b50505050565b606061119682611ad1565b9050919050565b7f9f2df0fed2c77648de5860a4cc508cd0818c85b8b8a1ab4ceeef8d981c8956a681565b6111ca82610937565b6111db816111d6611364565b61175f565b6111e583836118dd565b505050565b6000600560008473ffffffffffffffffffffffffffffffffffffffff1673ffffffffffffffffffffffffffffffffffffffff16815260200190815260200160002060008373ffffffffffffffffffffffffffffffffffffffff1673ffffffffffffffffffffffffffffffffffffffff16815260200190815260200160002060009054906101000a900460ff16905092915050565b60007f7965db0b000000000000000000000000000000000000000000000000000000007bffffffffffffffffffffffffffffffffffffffffffffffffffffffff1916827bffffffffffffffffffffffffffffffffffffffffffffffffffffffff191614806112f157506112f082611c23565b5b9050919050565b60008073ffffffffffffffffffffffffffffffffffffffff166002600084815260200190815260200160002060009054906101000a900473ffffffffffffffffffffffffffffffffffffffff1673ffffffffffffffffffffffffffffffffffffffff1614159050919050565b600033905090565b816004600083815260200190815260200160002060006101000a81548173ffffffffffffffffffffffffffffffffffffffff021916908373ffffffffffffffffffffffffffffffffffffffff160217905550808273ffffffffffffffffffffffffffffffffffffffff166113df83610c8d565b73ffffffffffffffffffffffffffffffffffffffff167f8c5be1e5ebec7d5bd14f71427d1e84f3dd0314c0f7b2291e5b200ac8c7c3b92560405160405180910390a45050565b6000611430826112f8565b61146f576040517f08c379a000000000000000000000000000000000000000000000000000000000815260040161146690613b6c565b60405180910390fd5b600061147a83610c8d565b90508073ffffffffffffffffffffffffffffffffffffffff168473ffffffffffffffffffffffffffffffffffffffff1614806114e957508373ffffffffffffffffffffffffffffffffffffffff166114d18461072d565b73ffffffffffffffffffffffffffffffffffffffff16145b806114fa57506114f981856111ea565b5b91505092915050565b8273ffffffffffffffffffffffffffffffffffffffff1661152382610c8d565b73ffffffffffffffffffffffffffffffffffffffff1614611579576040517f08c379a000000000000000000000000000000000000000000000000000000000815260040161157090613c6c565b60405180910390fd5b600073ffffffffffffffffffffffffffffffffffffffff168273ffffffffffffffffffffffffffffffffffffffff1614156115e9576040517f08c379a00000000000000000000000000000000000000000000000000000000081526004016115e090613b2c565b60405180910390fd5b6115f4838383611c9d565b6115ff60008261136c565b6001600360008573ffffffffffffffffffffffffffffffffffffffff1673ffffffffffffffffffffffffffffffffffffffff168152602001908152602001600020600082825461164f9190613efc565b925050819055506001600360008473ffffffffffffffffffffffffffffffffffffffff1673ffffffffffffffffffffffffffffffffffffffff16815260200190815260200160002060008282546116a69190613e1b565b92505081905550816002600083815260200190815260200160002060006101000a81548173ffffffffffffffffffffffffffffffffffffffff021916908373ffffffffffffffffffffffffffffffffffffffff160217905550808273ffffffffffffffffffffffffffffffffffffffff168473ffffffffffffffffffffffffffffffffffffffff167fddf252ad1be2c89b69c2b068fc378daa952ba7f163c4a11628f55a4df523b3ef60405160405180910390a4505050565b6117698282610df7565b6117f85761178e8173ffffffffffffffffffffffffffffffffffffffff166014611cad565b61179c8360001c6020611cad565b6040516020016117ad9291906139b3565b6040516020818303038152906040526040517f08c379a00000000000000000000000000000000000000000000000000000000081526004016117ef9190613a8a565b60405180910390fd5b5050565b6118068282610df7565b6118d9576001600b600084815260200190815260200160002060000160008373ffffffffffffffffffffffffffffffffffffffff1673ffffffffffffffffffffffffffffffffffffffff16815260200190815260200160002060006101000a81548160ff02191690831515021790555061187e611364565b73ffffffffffffffffffffffffffffffffffffffff168173ffffffffffffffffffffffffffffffffffffffff16837f2f8788117e7eff1d82e926ec794901d17c78024a50270940304540a733656f0d60405160405180910390a45b5050565b6118e78282610df7565b156119bb576000600b600084815260200190815260200160002060000160008373ffffffffffffffffffffffffffffffffffffffff1673ffffffffffffffffffffffffffffffffffffffff16815260200190815260200160002060006101000a81548160ff021916908315150217905550611960611364565b73ffffffffffffffffffffffffffffffffffffffff168173ffffffffffffffffffffffffffffffffffffffff16837ff6391f5c32d9c69d2a47ea670b442974b53935d1edc7fd64eb21e047a839171b60405160405180910390a45b5050565b600081600001549050919050565b6119e7828260405180602001604052806000815250611fa7565b5050565b6001816000016000828254019250508190555050565b611a0a826112f8565b611a49576040517f08c379a0000000000000000000000000000000000000000000000000000000008152600401611a4090613bec565b60405180910390fd5b80600a60008481526020019081526020016000209080519060200190611a70929190612bc2565b505050565b611a80848484611503565b611a8c84848484612002565b611acb576040517f08c379a0000000000000000000000000000000000000000000000000000000008152600401611ac290613aec565b60405180910390fd5b50505050565b6060611adc826112f8565b611b1b576040517f08c379a0000000000000000000000000000000000000000000000000000000008152600401611b1290613c2c565b60405180910390fd5b6000600a60008481526020019081526020016000208054611b3b9061401a565b80601f0160208091040260200160405190810160405280929190818152602001828054611b679061401a565b8015611bb45780601f10611b8957610100808354040283529160200191611bb4565b820191906000526020600020905b815481529060010190602001808311611b9757829003601f168201915b505050505090506000611bc5612199565b9050600081511415611bdb578192505050611c1e565b600082511115611c10578082604051602001611bf892919061398f565b60405160208183030381529060405292505050611c1e565b611c19846121b0565b925050505b919050565b60007f780e9d63000000000000000000000000000000000000000000000000000000007bffffffffffffffffffffffffffffffffffffffffffffffffffffffff1916827bffffffffffffffffffffffffffffffffffffffffffffffffffffffff19161480611c965750611c9582612257565b5b9050919050565b611ca8838383612339565b505050565b606060006002836002611cc09190613ea2565b611cca9190613e1b565b67ffffffffffffffff811115611d09577f4e487b7100000000000000000000000000000000000000000000000000000000600052604160045260246000fd5b6040519080825280601f01601f191660200182016040528015611d3b5781602001600182028036833780820191505090505b5090507f300000000000000000000000000000000000000000000000000000000000000081600081518110611d99577f4e487b7100000000000000000000000000000000000000000000000000000000600052603260045260246000fd5b60200101907effffffffffffffffffffffffffffffffffffffffffffffffffffffffffffff1916908160001a9053507f780000000000000000000000000000000000000000000000000000000000000081600181518110611e23577f4e487b7100000000000000000000000000000000000000000000000000000000600052603260045260246000fd5b60200101907effffffffffffffffffffffffffffffffffffffffffffffffffffffffffffff1916908160001a90535060006001846002611e639190613ea2565b611e6d9190613e1b565b90505b6001811115611f59577f3031323334353637383961626364656600000000000000000000000000000000600f861660108110611ed5577f4e487b7100000000000000000000000000000000000000000000000000000000600052603260045260246000fd5b1a60f81b828281518110611f12577f4e487b7100000000000000000000000000000000000000000000000000000000600052603260045260246000fd5b60200101907effffffffffffffffffffffffffffffffffffffffffffffffffffffffffffff1916908160001a905350600485901c945080611f5290613ff0565b9050611e70565b5060008414611f9d576040517f08c379a0000000000000000000000000000000000000000000000000000000008152600401611f9490613aac565b60405180910390fd5b8091505092915050565b611fb1838361244d565b611fbe6000848484612002565b611ffd576040517f08c379a0000000000000000000000000000000000000000000000000000000008152600401611ff490613aec565b60405180910390fd5b505050565b60006120238473ffffffffffffffffffffffffffffffffffffffff1661261b565b1561218c578373ffffffffffffffffffffffffffffffffffffffff1663150b7a0261204c611364565b8786866040518563ffffffff1660e01b815260040161206e9493929190613a08565b602060405180830381600087803b15801561208857600080fd5b505af19250505080156120b957506040513d601f19601f820116820180604052508101906120b69190613067565b60015b61213c573d80600081146120e9576040519150601f19603f3d011682016040523d82523d6000602084013e6120ee565b606091505b50600081511415612134576040517f08c379a000000000000000000000000000000000000000000000000000000000815260040161212b90613aec565b60405180910390fd5b805181602001fd5b63150b7a0260e01b7bffffffffffffffffffffffffffffffffffffffffffffffffffffffff1916817bffffffffffffffffffffffffffffffffffffffffffffffffffffffff191614915050612191565b600190505b949350505050565b606060405180602001604052806000815250905090565b60606121bb826112f8565b6121fa576040517f08c379a00000000000000000000000000000000000000000000000000000000081526004016121f190613c8c565b60405180910390fd5b6000612204612199565b90506000815111612224576040518060200160405280600081525061224f565b8061222e8461262e565b60405160200161223f92919061398f565b6040516020818303038152906040525b915050919050565b60007f80ac58cd000000000000000000000000000000000000000000000000000000007bffffffffffffffffffffffffffffffffffffffffffffffffffffffff1916827bffffffffffffffffffffffffffffffffffffffffffffffffffffffff1916148061232257507f5b5e139f000000000000000000000000000000000000000000000000000000007bffffffffffffffffffffffffffffffffffffffffffffffffffffffff1916827bffffffffffffffffffffffffffffffffffffffffffffffffffffffff1916145b806123325750612331826127db565b5b9050919050565b612344838383612845565b600073ffffffffffffffffffffffffffffffffffffffff168373ffffffffffffffffffffffffffffffffffffffff161415612387576123828161284a565b6123c6565b8173ffffffffffffffffffffffffffffffffffffffff168373ffffffffffffffffffffffffffffffffffffffff16146123c5576123c48382612893565b5b5b600073ffffffffffffffffffffffffffffffffffffffff168273ffffffffffffffffffffffffffffffffffffffff1614156124095761240481612a00565b612448565b8273ffffffffffffffffffffffffffffffffffffffff168273ffffffffffffffffffffffffffffffffffffffff1614612447576124468282612b43565b5b5b505050565b600073ffffffffffffffffffffffffffffffffffffffff168273ffffffffffffffffffffffffffffffffffffffff1614156124bd576040517f08c379a00000000000000000000000000000000000000000000000000000000081526004016124b490613c0c565b60405180910390fd5b6124c6816112f8565b15612506576040517f08c379a00000000000000000000000000000000000000000000000000000000081526004016124fd90613b0c565b60405180910390fd5b61251260008383611c9d565b6001600360008473ffffffffffffffffffffffffffffffffffffffff1673ffffffffffffffffffffffffffffffffffffffff16815260200190815260200160002060008282546125629190613e1b565b92505081905550816002600083815260200190815260200160002060006101000a81548173ffffffffffffffffffffffffffffffffffffffff021916908373ffffffffffffffffffffffffffffffffffffffff160217905550808273ffffffffffffffffffffffffffffffffffffffff16600073ffffffffffffffffffffffffffffffffffffffff167fddf252ad1be2c89b69c2b068fc378daa952ba7f163c4a11628f55a4df523b3ef60405160405180910390a45050565b600080823b905060008111915050919050565b60606000821415612676576040518060400160405280600181526020017f300000000000000000000000000000000000000000000000000000000000000081525090506127d6565b600082905060005b600082146126a85780806126919061404c565b915050600a826126a19190613e71565b915061267e565b60008167ffffffffffffffff8111156126ea577f4e487b7100000000000000000000000000000000000000000000000000000000600052604160045260246000fd5b6040519080825280601f01601f19166020018201604052801561271c5781602001600182028036833780820191505090505b5090505b600085146127cf576001826127359190613efc565b9150600a856127449190614095565b60306127509190613e1b565b60f81b81838151811061278c577f4e487b7100000000000000000000000000000000000000000000000000000000600052603260045260246000fd5b60200101907effffffffffffffffffffffffffffffffffffffffffffffffffffffffffffff1916908160001a905350600a856127c89190613e71565b9450612720565b8093505050505b919050565b60007f01ffc9a7000000000000000000000000000000000000000000000000000000007bffffffffffffffffffffffffffffffffffffffffffffffffffffffff1916827bffffffffffffffffffffffffffffffffffffffffffffffffffffffff1916149050919050565b505050565b6008805490506009600083815260200190815260200160002081905550600881908060018154018082558091505060019003906000526020600020016000909190919091505550565b600060016128a084610d3f565b6128aa9190613efc565b905060006007600084815260200190815260200160002054905081811461298f576000600660008673ffffffffffffffffffffffffffffffffffffffff1673ffffffffffffffffffffffffffffffffffffffff168152602001908152602001600020600084815260200190815260200160002054905080600660008773ffffffffffffffffffffffffffffffffffffffff1673ffffffffffffffffffffffffffffffffffffffff168152602001908152602001600020600084815260200190815260200160002081905550816007600083815260200190815260200160002081905550505b6007600084815260200190815260200160002060009055600660008573ffffffffffffffffffffffffffffffffffffffff1673ffffffffffffffffffffffffffffffffffffffff16815260200190815260200160002060008381526020019081526020016000206000905550505050565b60006001600880549050612a149190613efc565b9050600060096000848152602001908152602001600020549050600060088381548110612a6a577f4e487b7100000000000000000000000000000000000000000000000000000000600052603260045260246000fd5b906000526020600020015490508060088381548110612ab2577f4e487b7100000000000000000000000000000000000000000000000000000000600052603260045260246000fd5b906000526020600020018190555081600960008381526020019081526020016000208190555060096000858152602001908152602001600020600090556008805480612b27577f4e487b7100000000000000000000000000000000000000000000000000000000600052603160045260246000fd5b6001900381819060005260206000200160009055905550505050565b6000612b4e83610d3f565b905081600660008573ffffffffffffffffffffffffffffffffffffffff1673ffffffffffffffffffffffffffffffffffffffff168152602001908152602001600020600083815260200190815260200160002081905550806007600084815260200190815260200160002081905550505050565b828054612bce9061401a565b90600052602060002090601f016020900481019282612bf05760008555612c37565b82601f10612c0957805160ff1916838001178555612c37565b82800160010185558215612c37579182015b82811115612c36578251825591602001919060010190612c1b565b5b509050612c449190612c48565b5090565b5b80821115612c61576000816000905550600101612c49565b5090565b6000612c78612c7384613d78565b613d47565b905082815260208101848484011115612c9057600080fd5b612c9b848285613fae565b509392505050565b6000612cb6612cb184613da8565b613d47565b905082815260208101848484011115612cce57600080fd5b612cd9848285613fae565b509392505050565b600081359050612cf081614193565b92915050565b600081359050612d05816141aa565b92915050565b600081359050612d1a816141c1565b92915050565b600081359050612d2f816141d8565b92915050565b600081519050612d44816141d8565b92915050565b600082601f830112612d5b57600080fd5b8135612d6b848260208601612c65565b91505092915050565b600082601f830112612d8557600080fd5b8135612d95848260208601612ca3565b91505092915050565b600081359050612dad816141ef565b92915050565b600060208284031215612dc557600080fd5b6000612dd384828501612ce1565b91505092915050565b60008060408385031215612def57600080fd5b6000612dfd85828601612ce1565b9250506020612e0e85828601612ce1565b9150509250929050565b600080600060608486031215612e2d57600080fd5b6000612e3b86828701612ce1565b9350506020612e4c86828701612ce1565b9250506040612e5d86828701612d9e565b9150509250925092565b60008060008060808587031215612e7d57600080fd5b6000612e8b87828801612ce1565b9450506020612e9c87828801612ce1565b9350506040612ead87828801612d9e565b925050606085013567ffffffffffffffff811115612eca57600080fd5b612ed687828801612d4a565b91505092959194509250565b60008060408385031215612ef557600080fd5b6000612f0385828601612ce1565b9250506020612f1485828601612cf6565b9150509250929050565b600080600060608486031215612f3357600080fd5b6000612f4186828701612ce1565b935050602084013567ffffffffffffffff811115612f5e57600080fd5b612f6a86828701612d74565b925050604084013567ffffffffffffffff811115612f8757600080fd5b612f9386828701612d74565b9150509250925092565b60008060408385031215612fb057600080fd5b6000612fbe85828601612ce1565b9250506020612fcf85828601612d9e565b9150509250929050565b600060208284031215612feb57600080fd5b6000612ff984828501612d0b565b91505092915050565b6000806040838503121561301557600080fd5b600061302385828601612d0b565b925050602061303485828601612ce1565b9150509250929050565b60006020828403121561305057600080fd5b600061305e84828501612d20565b91505092915050565b60006020828403121561307957600080fd5b600061308784828501612d35565b91505092915050565b6000602082840312156130a257600080fd5b60006130b084828501612d9e565b91505092915050565b6130c281613f30565b82525050565b6130d181613f42565b82525050565b6130e081613f4e565b82525050565b60006130f182613dd8565b6130fb8185613dee565b935061310b818560208601613fbd565b61311481614182565b840191505092915050565b600061312a82613de3565b6131348185613dff565b9350613144818560208601613fbd565b61314d81614182565b840191505092915050565b600061316382613de3565b61316d8185613e10565b935061317d818560208601613fbd565b80840191505092915050565b6000613196602083613dff565b91507f537472696e67733a20686578206c656e67746820696e73756666696369656e746000830152602082019050919050565b60006131d6602b83613dff565b91507f455243373231456e756d657261626c653a206f776e657220696e646578206f7560008301527f74206f6620626f756e64730000000000000000000000000000000000000000006020830152604082019050919050565b600061323c603283613dff565b91507f4552433732313a207472616e7366657220746f206e6f6e20455243373231526560008301527f63656976657220696d706c656d656e74657200000000000000000000000000006020830152604082019050919050565b60006132a2601c83613dff565b91507f4552433732313a20746f6b656e20616c7265616479206d696e746564000000006000830152602082019050919050565b60006132e2602483613dff565b91507f4552433732313a207472616e7366657220746f20746865207a65726f2061646460008301527f72657373000000000000000000000000000000000000000000000000000000006020830152604082019050919050565b6000613348601983613dff565b91507f4552433732313a20617070726f766520746f2063616c6c6572000000000000006000830152602082019050919050565b6000613388602c83613dff565b91507f4552433732313a206f70657261746f7220717565727920666f72206e6f6e657860008301527f697374656e7420746f6b656e00000000000000000000000000000000000000006020830152604082019050919050565b60006133ee603883613dff565b91507f4552433732313a20617070726f76652063616c6c6572206973206e6f74206f7760008301527f6e6572206e6f7220617070726f76656420666f7220616c6c00000000000000006020830152604082019050919050565b6000613454602a83613dff565b91507f4552433732313a2062616c616e636520717565727920666f7220746865207a6560008301527f726f2061646472657373000000000000000000000000000000000000000000006020830152604082019050919050565b60006134ba602983613dff565b91507f4552433732313a206f776e657220717565727920666f72206e6f6e657869737460008301527f656e7420746f6b656e00000000000000000000000000000000000000000000006020830152604082019050919050565b6000613520602e83613dff565b91507f45524337323155524953746f726167653a2055524920736574206f66206e6f6e60008301527f6578697374656e7420746f6b656e0000000000000000000000000000000000006020830152604082019050919050565b6000613586602083613dff565b91507f4552433732313a206d696e7420746f20746865207a65726f20616464726573736000830152602082019050919050565b60006135c6603183613dff565b91507f45524337323155524953746f726167653a2055524920717565727920666f722060008301527f6e6f6e6578697374656e7420746f6b656e0000000000000000000000000000006020830152604082019050919050565b600061362c602c83613dff565b91507f4552433732313a20617070726f76656420717565727920666f72206e6f6e657860008301527f697374656e7420746f6b656e00000000000000000000000000000000000000006020830152604082019050919050565b6000613692602983613dff565b91507f4552433732313a207472616e73666572206f6620746f6b656e2074686174206960008301527f73206e6f74206f776e00000000000000000000000000000000000000000000006020830152604082019050919050565b60006136f8602f83613dff565b91507f4552433732314d657461646174613a2055524920717565727920666f72206e6f60008301527f6e6578697374656e7420746f6b656e00000000000000000000000000000000006020830152604082019050919050565b600061375e602183613dff565b91507f4552433732313a20617070726f76616c20746f2063757272656e74206f776e6560008301527f72000000000000000000000000000000000000000000000000000000000000006020830152604082019050919050565b60006137c4603183613dff565b91507f4552433732313a207472616e736665722063616c6c6572206973206e6f74206f60008301527f776e6572206e6f7220617070726f7665640000000000000000000000000000006020830152604082019050919050565b600061382a602c83613dff565b91507f455243373231456e756d657261626c653a20676c6f62616c20696e646578206f60008301527f7574206f6620626f756e647300000000000000000000000000000000000000006020830152604082019050919050565b6000613890601783613e10565b91507f416363657373436f6e74726f6c3a206163636f756e74200000000000000000006000830152601782019050919050565b60006138d0601183613e10565b91507f206973206d697373696e6720726f6c65200000000000000000000000000000006000830152601182019050919050565b6000613910602f83613dff565b91507f416363657373436f6e74726f6c3a2063616e206f6e6c792072656e6f756e636560008301527f20726f6c657320666f722073656c6600000000000000000000000000000000006020830152604082019050919050565b61397281613fa4565b82525050565b60006139848284613158565b915081905092915050565b600061399b8285613158565b91506139a78284613158565b91508190509392505050565b60006139be82613883565b91506139ca8285613158565b91506139d5826138c3565b91506139e18284613158565b91508190509392505050565b6000602082019050613a0260008301846130b9565b92915050565b6000608082019050613a1d60008301876130b9565b613a2a60208301866130b9565b613a376040830185613969565b8181036060830152613a4981846130e6565b905095945050505050565b6000602082019050613a6960008301846130c8565b92915050565b6000602082019050613a8460008301846130d7565b92915050565b60006020820190508181036000830152613aa4818461311f565b905092915050565b60006020820190508181036000830152613ac581613189565b9050919050565b60006020820190508181036000830152613ae5816131c9565b9050919050565b60006020820190508181036000830152613b058161322f565b9050919050565b60006020820190508181036000830152613b2581613295565b9050919050565b60006020820190508181036000830152613b45816132d5565b9050919050565b60006020820190508181036000830152613b658161333b565b9050919050565b60006020820190508181036000830152613b858161337b565b9050919050565b60006020820190508181036000830152613ba5816133e1565b9050919050565b60006020820190508181036000830152613bc581613447565b9050919050565b60006020820190508181036000830152613be5816134ad565b9050919050565b60006020820190508181036000830152613c0581613513565b9050919050565b60006020820190508181036000830152613c2581613579565b9050919050565b60006020820190508181036000830152613c45816135b9565b9050919050565b60006020820190508181036000830152613c658161361f565b9050919050565b60006020820190508181036000830152613c8581613685565b9050919050565b60006020820190508181036000830152613ca5816136eb565b9050919050565b60006020820190508181036000830152613cc581613751565b9050919050565b60006020820190508181036000830152613ce5816137b7565b9050919050565b60006020820190508181036000830152613d058161381d565b9050919050565b60006020820190508181036000830152613d2581613903565b9050919050565b6000602082019050613d416000830184613969565b92915050565b6000604051905081810181811067ffffffffffffffff82111715613d6e57613d6d614153565b5b8060405250919050565b600067ffffffffffffffff821115613d9357613d92614153565b5b601f19601f8301169050602081019050919050565b600067ffffffffffffffff821115613dc357613dc2614153565b5b601f19601f8301169050602081019050919050565b600081519050919050565b600081519050919050565b600082825260208201905092915050565b600082825260208201905092915050565b600081905092915050565b6000613e2682613fa4565b9150613e3183613fa4565b9250827fffffffffffffffffffffffffffffffffffffffffffffffffffffffffffffffff03821115613e6657613e656140c6565b5b828201905092915050565b6000613e7c82613fa4565b9150613e8783613fa4565b925082613e9757613e966140f5565b5b828204905092915050565b6000613ead82613fa4565b9150613eb883613fa4565b9250817fffffffffffffffffffffffffffffffffffffffffffffffffffffffffffffffff0483118215151615613ef157613ef06140c6565b5b828202905092915050565b6000613f0782613fa4565b9150613f1283613fa4565b925082821015613f2557613f246140c6565b5b828203905092915050565b6000613f3b82613f84565b9050919050565b60008115159050919050565b6000819050919050565b60007fffffffff0000000000000000000000000000000000000000000000000000000082169050919050565b600073ffffffffffffffffffffffffffffffffffffffff82169050919050565b6000819050919050565b82818337600083830152505050565b60005b83811015613fdb578082015181840152602081019050613fc0565b83811115613fea576000848401525b50505050565b6000613ffb82613fa4565b9150600082141561400f5761400e6140c6565b5b600182039050919050565b6000600282049050600182168061403257607f821691505b6020821081141561404657614045614124565b5b50919050565b600061405782613fa4565b91507fffffffffffffffffffffffffffffffffffffffffffffffffffffffffffffffff82141561408a576140896140c6565b5b600182019050919050565b60006140a082613fa4565b91506140ab83613fa4565b9250826140bb576140ba6140f5565b5b828206905092915050565b7f4e487b7100000000000000000000000000000000000000000000000000000000600052601160045260246000fd5b7f4e487b7100000000000000000000000000000000000000000000000000000000600052601260045260246000fd5b7f4e487b7100000000000000000000000000000000000000000000000000000000600052602260045260246000fd5b7f4e487b7100000000000000000000000000000000000000000000000000000000600052604160045260246000fd5b6000601f19601f8301169050919050565b61419c81613f30565b81146141a757600080fd5b50565b6141b381613f42565b81146141be57600080fd5b50565b6141ca81613f4e565b81146141d557600080fd5b50565b6141e181613f58565b81146141ec57600080fd5b50565b6141f881613fa4565b811461420357600080fd5b5056fea2646970667358221220434cda1091a3176766b9232262a79bcc7df7876e81996f25f00a91616e8f7b6364736f6c63430008000033",
  "immutableReferences": {},
  "source": "// SPDX-License-Identifier: MIT\npragma solidity ^0.8.0;\n\nimport \"@openzeppelin/contracts/token/ERC721/ERC721.sol\";\nimport \"@openzeppelin/contracts/token/ERC721/extensions/ERC721Enumerable.sol\";\nimport \"@openzeppelin/contracts/token/ERC721/extensions/ERC721URIStorage.sol\";\nimport \"@openzeppelin/contracts/access/AccessControl.sol\";\nimport \"@openzeppelin/contracts/utils/Counters.sol\";\n\ncontract hei is ERC721, ERC721Enumerable, ERC721URIStorage, AccessControl {\n    using Counters for Counters.Counter;\n    mapping(string => uint8) hashes;\n\n    bytes32 public constant MINTER_ROLE = keccak256(\"MINTER_ROLE\");\n    Counters.Counter private _tokenIdCounter;\n\n    constructor() ERC721(\"Heirloom\", \"HEI\") {\n        _setupRole(DEFAULT_ADMIN_ROLE, msg.sender);\n        _setupRole(MINTER_ROLE, msg.sender);\n    }\n\n    function safeMint(address to) public {\n        require(hasRole(MINTER_ROLE, msg.sender));\n        _safeMint(to, _tokenIdCounter.current());\n        _tokenIdCounter.increment();\n    }\n\n    function _beforeTokenTransfer(address from, address to, uint256 tokenId)\n        internal\n        override(ERC721, ERC721Enumerable)\n    {\n        super._beforeTokenTransfer(from, to, tokenId);\n    }\n\n    function _burn(uint256 tokenId) internal override(ERC721, ERC721URIStorage) {\n        super._burn(tokenId);\n    }\n\n    function tokenURI(uint256 tokenId)\n        public\n        view\n        override(ERC721, ERC721URIStorage)\n        returns (string memory)\n    {\n        return super.tokenURI(tokenId);\n    }\n\n    function supportsInterface(bytes4 interfaceId)\n        public\n        view\n        override(ERC721, ERC721Enumerable, AccessControl)\n        returns (bool)\n    {\n        return super.supportsInterface(interfaceId);\n    }\n    \n    function mintItem(address recipient, string memory hash, string memory metadata)\n      public\n      returns (uint256)\n      {\n        require(hashes[hash] != 1);\n        hashes[hash] = 1;\n        _tokenIdCounter.increment();\n        uint256 newItemId = _tokenIdCounter.current();\n        _safeMint(recipient, newItemId);\n        _setTokenURI(newItemId, metadata);\n        return newItemId;\n      }\n      \n           // by a token by passing in the token's id\n      function buyToken(uint256 _tokenId) public payable {\n        // check if the function caller is not an zero account address\n        require(msg.sender != address(0));\n        // check if the token id of the token being bought exists or not\n        require(_exists(_tokenId));\n        // get the token's owner\n        address tokenOwner = ownerOf(_tokenId);\n        // token's owner should not be an zero address account\n        require(tokenOwner != address(0));\n        // the one who wants to buy the token should not be the token's owner\n        require(tokenOwner != msg.sender);\n        // transfer the token from owner to the caller of the function (buyer)\n        _transfer(tokenOwner, msg.sender, _tokenId);\n\n      }\n}",
  "sourcePath": "/Users/murat/Desktop/soh-nft/contracts/hei.sol",
  "compiler": {
    "name": "solc",
    "version": "0.8.0+commit.c7dfd78e.Emscripten.clang"
  },
  "schemaVersion": "3.4.1",
  "updatedAt": "2021-06-17T20:12:26.099Z",
  "networkType": "ethereum",
  "devdoc": {
    "kind": "dev",
    "methods": {
      "approve(address,uint256)": {
        "details": "See {IERC721-approve}."
      },
      "balanceOf(address)": {
        "details": "See {IERC721-balanceOf}."
      },
      "getApproved(uint256)": {
        "details": "See {IERC721-getApproved}."
      },
      "getRoleAdmin(bytes32)": {
        "details": "Returns the admin role that controls `role`. See {grantRole} and {revokeRole}. To change a role's admin, use {_setRoleAdmin}."
      },
      "grantRole(bytes32,address)": {
        "details": "Grants `role` to `account`. If `account` had not been already granted `role`, emits a {RoleGranted} event. Requirements: - the caller must have ``role``'s admin role."
      },
      "hasRole(bytes32,address)": {
        "details": "Returns `true` if `account` has been granted `role`."
      },
      "isApprovedForAll(address,address)": {
        "details": "See {IERC721-isApprovedForAll}."
      },
      "name()": {
        "details": "See {IERC721Metadata-name}."
      },
      "ownerOf(uint256)": {
        "details": "See {IERC721-ownerOf}."
      },
      "renounceRole(bytes32,address)": {
        "details": "Revokes `role` from the calling account. Roles are often managed via {grantRole} and {revokeRole}: this function's purpose is to provide a mechanism for accounts to lose their privileges if they are compromised (such as when a trusted device is misplaced). If the calling account had been granted `role`, emits a {RoleRevoked} event. Requirements: - the caller must be `account`."
      },
      "revokeRole(bytes32,address)": {
        "details": "Revokes `role` from `account`. If `account` had been granted `role`, emits a {RoleRevoked} event. Requirements: - the caller must have ``role``'s admin role."
      },
      "safeTransferFrom(address,address,uint256)": {
        "details": "See {IERC721-safeTransferFrom}."
      },
      "safeTransferFrom(address,address,uint256,bytes)": {
        "details": "See {IERC721-safeTransferFrom}."
      },
      "setApprovalForAll(address,bool)": {
        "details": "See {IERC721-setApprovalForAll}."
      },
      "symbol()": {
        "details": "See {IERC721Metadata-symbol}."
      },
      "tokenByIndex(uint256)": {
        "details": "See {IERC721Enumerable-tokenByIndex}."
      },
      "tokenOfOwnerByIndex(address,uint256)": {
        "details": "See {IERC721Enumerable-tokenOfOwnerByIndex}."
      },
      "totalSupply()": {
        "details": "See {IERC721Enumerable-totalSupply}."
      },
      "transferFrom(address,address,uint256)": {
        "details": "See {IERC721-transferFrom}."
      }
    },
    "version": 1
  },
  "userdoc": {
    "kind": "user",
    "methods": {},
    "version": 1
  }
}